{
  "contractName": "Insure",
  "abi": [
    {
      "inputs": [],
      "stateMutability": "nonpayable",
      "type": "constructor"
    },
    {
      "inputs": [
        {
          "internalType": "address",
          "name": "id",
          "type": "address"
        }
      ],
      "name": "isAdmin",
      "outputs": [
        {
          "internalType": "bool",
          "name": "",
          "type": "bool"
        }
      ],
      "stateMutability": "view",
      "type": "function",
      "constant": true
    },
    {
      "inputs": [],
      "name": "getAdmin",
      "outputs": [
        {
          "internalType": "address",
          "name": "",
          "type": "address"
        }
      ],
      "stateMutability": "view",
      "type": "function",
      "constant": true
    },
    {
      "inputs": [
        {
          "internalType": "address",
          "name": "id",
          "type": "address"
        }
      ],
      "name": "isUser",
      "outputs": [
        {
          "internalType": "bool",
          "name": "",
          "type": "bool"
        }
      ],
      "stateMutability": "view",
      "type": "function",
      "constant": true
    },
    {
      "inputs": [
        {
          "internalType": "address",
          "name": "id",
          "type": "address"
        }
      ],
      "name": "isAgent",
      "outputs": [
        {
          "internalType": "bool",
          "name": "",
          "type": "bool"
        }
      ],
      "stateMutability": "view",
      "type": "function",
      "constant": true
    },
    {
      "inputs": [
        {
          "internalType": "address",
          "name": "_pID",
          "type": "address"
        },
        {
          "internalType": "string",
          "name": "_pwd",
          "type": "string"
        }
      ],
      "name": "addUser",
      "outputs": [],
      "stateMutability": "nonpayable",
      "type": "function"
    },
    {
      "inputs": [
        {
          "internalType": "address",
          "name": "_aID",
          "type": "address"
        }
      ],
      "name": "addAgent",
      "outputs": [],
      "stateMutability": "nonpayable",
      "type": "function"
    },
    {
      "inputs": [
        {
          "internalType": "uint256",
          "name": "_id",
          "type": "uint256"
        },
        {
          "internalType": "address",
          "name": "_pID",
          "type": "address"
        },
        {
          "internalType": "string",
          "name": "_amount",
          "type": "string"
        },
        {
          "internalType": "string",
          "name": "_status",
          "type": "string"
        }
      ],
      "name": "addBill",
      "outputs": [],
      "stateMutability": "nonpayable",
      "type": "function"
    },
    {
      "inputs": [
        {
          "internalType": "address",
          "name": "_id",
          "type": "address"
        }
      ],
      "name": "getBills",
      "outputs": [
        {
          "components": [
            {
              "internalType": "uint256",
              "name": "id",
              "type": "uint256"
            },
            {
              "internalType": "uint256",
              "name": "bID",
              "type": "uint256"
            },
            {
              "internalType": "uint256",
              "name": "cID",
              "type": "uint256"
            },
            {
              "internalType": "address",
              "name": "pID",
              "type": "address"
            },
            {
              "internalType": "string",
              "name": "amount",
              "type": "string"
            },
            {
              "internalType": "string",
              "name": "status",
              "type": "string"
            }
          ],
          "internalType": "struct Insure.Bill[]",
          "name": "",
          "type": "tuple[]"
        }
      ],
      "stateMutability": "view",
      "type": "function",
      "constant": true
    },
    {
      "inputs": [],
      "name": "getAllBills",
      "outputs": [
        {
          "components": [
            {
              "internalType": "uint256",
              "name": "id",
              "type": "uint256"
            },
            {
              "internalType": "uint256",
              "name": "bID",
              "type": "uint256"
            },
            {
              "internalType": "uint256",
              "name": "cID",
              "type": "uint256"
            },
            {
              "internalType": "address",
              "name": "pID",
              "type": "address"
            },
            {
              "internalType": "string",
              "name": "amount",
              "type": "string"
            },
            {
              "internalType": "string",
              "name": "status",
              "type": "string"
            }
          ],
          "internalType": "struct Insure.Bill[]",
          "name": "",
          "type": "tuple[]"
        }
      ],
      "stateMutability": "view",
      "type": "function",
      "constant": true
    },
    {
      "inputs": [
        {
          "internalType": "uint256",
          "name": "_id",
          "type": "uint256"
        },
        {
          "internalType": "string",
          "name": "_status",
          "type": "string"
        },
        {
          "internalType": "uint256",
          "name": "_cID",
          "type": "uint256"
        }
      ],
      "name": "updateInsurance",
      "outputs": [],
      "stateMutability": "nonpayable",
      "type": "function"
    },
    {
      "inputs": [
        {
          "internalType": "uint256",
          "name": "_bID",
          "type": "uint256"
        },
        {
          "internalType": "address",
          "name": "_pID",
          "type": "address"
        },
        {
          "internalType": "address",
          "name": "_aID",
          "type": "address"
        },
        {
          "internalType": "string",
          "name": "_amount",
          "type": "string"
        },
        {
          "internalType": "string",
          "name": "_status",
          "type": "string"
        }
      ],
      "name": "claimInsurance",
      "outputs": [],
      "stateMutability": "nonpayable",
      "type": "function"
    },
    {
      "inputs": [
        {
          "internalType": "address",
          "name": "_pID",
          "type": "address"
        }
      ],
      "name": "getUserClaims",
      "outputs": [
        {
          "components": [
            {
              "internalType": "uint256",
              "name": "id",
              "type": "uint256"
            },
            {
              "internalType": "uint256",
              "name": "bID",
              "type": "uint256"
            },
            {
              "internalType": "address",
              "name": "pID",
              "type": "address"
            },
            {
              "internalType": "address",
              "name": "aID",
              "type": "address"
            },
            {
              "internalType": "string",
              "name": "status",
              "type": "string"
            },
            {
              "internalType": "string",
              "name": "amount",
              "type": "string"
            }
          ],
          "internalType": "struct Insure.Claim[]",
          "name": "",
          "type": "tuple[]"
        }
      ],
      "stateMutability": "view",
      "type": "function",
      "constant": true
    },
    {
      "inputs": [
        {
          "internalType": "address",
          "name": "_aID",
          "type": "address"
        }
      ],
      "name": "getAgentClaims",
      "outputs": [
        {
          "components": [
            {
              "internalType": "uint256",
              "name": "id",
              "type": "uint256"
            },
            {
              "internalType": "uint256",
              "name": "bID",
              "type": "uint256"
            },
            {
              "internalType": "address",
              "name": "pID",
              "type": "address"
            },
            {
              "internalType": "address",
              "name": "aID",
              "type": "address"
            },
            {
              "internalType": "string",
              "name": "status",
              "type": "string"
            },
            {
              "internalType": "string",
              "name": "amount",
              "type": "string"
            }
          ],
          "internalType": "struct Insure.Claim[]",
          "name": "",
          "type": "tuple[]"
        }
      ],
      "stateMutability": "view",
      "type": "function",
      "constant": true
    },
    {
      "inputs": [
        {
          "internalType": "uint256",
          "name": "_cID",
          "type": "uint256"
        },
        {
          "internalType": "string",
          "name": "_status",
          "type": "string"
        }
      ],
      "name": "updateClaim",
      "outputs": [],
      "stateMutability": "nonpayable",
      "type": "function"
    },
    {
      "inputs": [
        {
          "internalType": "uint256",
          "name": "_bID",
          "type": "uint256"
        },
        {
          "internalType": "uint256",
          "name": "_cID",
          "type": "uint256"
        },
        {
          "internalType": "uint256",
          "name": "_pID",
          "type": "uint256"
        },
        {
          "internalType": "string[]",
          "name": "_files",
          "type": "string[]"
        }
      ],
      "name": "addMedicalRecords",
      "outputs": [],
      "stateMutability": "nonpayable",
      "type": "function"
    },
    {
      "inputs": [
        {
          "internalType": "uint256",
          "name": "_cID",
          "type": "uint256"
        }
      ],
      "name": "getMedicalRecords",
      "outputs": [
        {
          "components": [
            {
              "internalType": "uint256",
              "name": "bID",
              "type": "uint256"
            },
            {
              "internalType": "uint256",
              "name": "cID",
              "type": "uint256"
            },
            {
              "internalType": "uint256",
              "name": "pID",
              "type": "uint256"
            },
            {
              "internalType": "string[]",
              "name": "files",
              "type": "string[]"
            }
          ],
          "internalType": "struct Insure.MedicalRecords",
          "name": "",
          "type": "tuple"
        }
      ],
      "stateMutability": "view",
      "type": "function",
      "constant": true
    },
    {
      "inputs": [
        {
          "internalType": "uint256",
          "name": "_cID",
          "type": "uint256"
        },
        {
          "internalType": "uint256",
          "name": "_bID",
          "type": "uint256"
        }
      ],
      "name": "acceptClaim",
      "outputs": [],
      "stateMutability": "nonpayable",
      "type": "function"
    },
    {
      "inputs": [
        {
          "internalType": "uint256",
          "name": "_cID",
          "type": "uint256"
        },
        {
          "internalType": "uint256",
          "name": "_bID",
          "type": "uint256"
        }
      ],
      "name": "rejectClaim",
      "outputs": [],
      "stateMutability": "nonpayable",
      "type": "function"
    },
    {
      "inputs": [
        {
          "internalType": "uint256",
          "name": "_cID",
          "type": "uint256"
        },
        {
          "internalType": "uint256",
          "name": "_bID",
          "type": "uint256"
        }
      ],
      "name": "sendPayment",
      "outputs": [],
      "stateMutability": "nonpayable",
      "type": "function"
    }
  ],
  "bytecode": "0x60806040523480156200001157600080fd5b5033600360006101000a81548173ffffffffffffffffffffffffffffffffffffffff021916908373ffffffffffffffffffffffffffffffffffffffff16021790555062000090600360009054906101000a900473ffffffffffffffffffffffffffffffffffffffff166000620000a660201b62001cc51790919060201c565b6000600e819055506000600f81905550620001ef565b600073ffffffffffffffffffffffffffffffffffffffff168173ffffffffffffffffffffffffffffffffffffffff161415620000e157600080fd5b620000f382826200015c60201b60201c565b15620000fe57600080fd5b60018260000160008373ffffffffffffffffffffffffffffffffffffffff1673ffffffffffffffffffffffffffffffffffffffff16815260200190815260200160002060006101000a81548160ff0219169083151502179055505050565b60008073ffffffffffffffffffffffffffffffffffffffff168273ffffffffffffffffffffffffffffffffffffffff1614156200019857600080fd5b8260000160008373ffffffffffffffffffffffffffffffffffffffff1673ffffffffffffffffffffffffffffffffffffffff16815260200190815260200160002060009054906101000a900460ff16905092915050565b61301280620001ff6000396000f3fe608060405234801561001057600080fd5b50600436106101215760003560e01c80634b68d431116100ad57806384e798421161007157806384e7984214610316578063b668219e14610332578063da4db65d1461034e578063e165c2681461036a578063ffbcfac21461039a57610121565b80634b68d431146102725780634f5e63071461028e5780636e9960c3146102aa5780637bcb4a64146102c8578063818e1f1a146102f857610121565b8063323f040f116100f4578063323f040f146101be5780633cb74917146101da57806340ebf59e146101f65780634209fff11461021257806345a132aa1461024257610121565b80631d260f8e146101265780631ffbb064146101425780632068eee41461017257806324d7806c1461018e575b600080fd5b610140600480360381019061013b9190612117565b6103ca565b005b61015c600480360381019061015791906121b5565b610471565b60405161016991906121fd565b60405180910390f35b61018c60048036038101906101879190612117565b61048e565b005b6101a860048036038101906101a391906121b5565b6104e2565b6040516101b591906121fd565b60405180910390f35b6101d860048036038101906101d3919061235e565b6104ff565b005b6101f460048036038101906101ef9190612117565b6107e9565b005b610210600480360381019061020b91906124e3565b610890565b005b61022c600480360381019061022791906121b5565b610948565b60405161023991906121fd565b60405180910390f35b61025c600480360381019061025791906121b5565b610965565b604051610269919061275e565b60405180910390f35b61028c60048036038101906102879190612780565b610c7a565b005b6102a860048036038101906102a391906127dc565b610d8c565b005b6102b2610dc1565b6040516102bf9190612847565b60405180910390f35b6102e260048036038101906102dd91906121b5565b610deb565b6040516102ef91906129b4565b60405180910390f35b61030061110f565b60405161030d919061275e565b60405180910390f35b610330600480360381019061032b91906121b5565b611387565b005b61034c600480360381019061034791906129d6565b61156f565b005b61036860048036038101906103639190612a45565b6115ae565b005b610384600480360381019061037f91906121b5565b611810565b60405161039191906129b4565b60405180910390f35b6103b460048036038101906103af9190612af8565b611b34565b6040516103c19190612c4a565b60405180910390f35b6103de336001611d7190919063ffffffff16565b61041d576040517f08c379a000000000000000000000000000000000000000000000000000000000815260040161041490612cef565b60405180910390fd5b60006040518060400160405280600e81526020017f436c61696d20416363657074656400000000000000000000000000000000000081525090506104618382610d8c565b61046c82828561156f565b505050565b6000610487826001611d7190919063ffffffff16565b9050919050565b60006040518060400160405280600a81526020017f42696c6c2050617965640000000000000000000000000000000000000000000081525090506104d28382610d8c565b6104dd82828561156f565b505050565b60006104f8826000611d7190919063ffffffff16565b9050919050565b600f600081548092919061051290612d3e565b9190505550600060066000600f5481526020019081526020016000209050600f548160000181905550848160010181905550838160030160006101000a81548173ffffffffffffffffffffffffffffffffffffffff021916908373ffffffffffffffffffffffffffffffffffffffff1602179055508281600401908051906020019061059f929190611e03565b50818160050190805190602001906105b8929190611e03565b506000600960008673ffffffffffffffffffffffffffffffffffffffff1673ffffffffffffffffffffffffffffffffffffffff1681526020019081526020016000209050808290806001815401808255809150506001900390600052602060002090600602016000909190919091506000820154816000015560018201548160010155600282015481600201556003820160009054906101000a900473ffffffffffffffffffffffffffffffffffffffff168160030160006101000a81548173ffffffffffffffffffffffffffffffffffffffff021916908373ffffffffffffffffffffffffffffffffffffffff16021790555060048201816004019080546106c090612db6565b6106cb929190611e89565b5060058201816005019080546106e090612db6565b6106eb929190611e89565b505050600c8290806001815401808255809150506001900390600052602060002090600602016000909190919091506000820154816000015560018201548160010155600282015481600201556003820160009054906101000a900473ffffffffffffffffffffffffffffffffffffffff168160030160006101000a81548173ffffffffffffffffffffffffffffffffffffffff021916908373ffffffffffffffffffffffffffffffffffffffff16021790555060048201816004019080546107b390612db6565b6107be929190611e89565b5060058201816005019080546107d390612db6565b6107de929190611e89565b505050505050505050565b6107fd336001611d7190919063ffffffff16565b61083c576040517f08c379a000000000000000000000000000000000000000000000000000000000815260040161083390612cef565b60405180910390fd5b60006040518060400160405280600e81526020017f436c61696d2052656a656374656400000000000000000000000000000000000081525090506108808382610d8c565b61088b82828561156f565b505050565b6108a4336000611d7190919063ffffffff16565b6108ad57600080fd5b600060086000601060008154809291906108c690612d3e565b91905055815260200190815260200160002090508481600001819055508381600101819055508281600201819055508181600301908051906020019061090d929190611f16565b5060006040518060600160405280602b8152602001612fb2602b9139905061093686828761156f565b6109408582610d8c565b505050505050565b600061095e826002611d7190919063ffffffff16565b9050919050565b60606000600960008473ffffffffffffffffffffffffffffffffffffffff1673ffffffffffffffffffffffffffffffffffffffff1681526020019081526020016000208054905067ffffffffffffffff8111156109c5576109c4612233565b5b6040519080825280602002602001820160405280156109fe57816020015b6109eb611f76565b8152602001906001900390816109e35790505b5090506000805b600c805490508111610c6f578473ffffffffffffffffffffffffffffffffffffffff166006600083815260200190815260200160002060030160009054906101000a900473ffffffffffffffffffffffffffffffffffffffff1673ffffffffffffffffffffffffffffffffffffffff161415610c5c57600660008281526020019081526020016000206040518060c00160405290816000820154815260200160018201548152602001600282015481526020016003820160009054906101000a900473ffffffffffffffffffffffffffffffffffffffff1673ffffffffffffffffffffffffffffffffffffffff1673ffffffffffffffffffffffffffffffffffffffff168152602001600482018054610b1d90612db6565b80601f0160208091040260200160405190810160405280929190818152602001828054610b4990612db6565b8015610b965780601f10610b6b57610100808354040283529160200191610b96565b820191906000526020600020905b815481529060010190602001808311610b7957829003601f168201915b50505050508152602001600582018054610baf90612db6565b80601f0160208091040260200160405190810160405280929190818152602001828054610bdb90612db6565b8015610c285780601f10610bfd57610100808354040283529160200191610c28565b820191906000526020600020905b815481529060010190602001808311610c0b57829003601f168201915b505050505081525050838380610c3d90612d3e565b945081518110610c5057610c4f612de8565b5b60200260200101819052505b8080610c6790612d3e565b915050610a05565b508192505050919050565b610c8e826000611d7190919063ffffffff16565b15610c9857600080fd5b610cac826001611d7190919063ffffffff16565b15610cb657600080fd5b610cca826002611d7190919063ffffffff16565b15610cd457600080fd5b6000600460008473ffffffffffffffffffffffffffffffffffffffff1673ffffffffffffffffffffffffffffffffffffffff1681526020019081526020016000209050828160000160006101000a81548173ffffffffffffffffffffffffffffffffffffffff021916908373ffffffffffffffffffffffffffffffffffffffff16021790555081816001019080519060200190610d72929190611e03565b50610d87836002611cc590919063ffffffff16565b505050565b600060076000848152602001908152602001600020905081816004019080519060200190610dbb929190611e03565b50505050565b6000600360009054906101000a900473ffffffffffffffffffffffffffffffffffffffff16905090565b60606000600d8054905067ffffffffffffffff811115610e0e57610e0d612233565b5b604051908082528060200260200182016040528015610e4757816020015b610e34611fc2565b815260200190600190039081610e2c5790505b5090506000805b600c805490508111611104578473ffffffffffffffffffffffffffffffffffffffff166007600083815260200190815260200160002060020160009054906101000a900473ffffffffffffffffffffffffffffffffffffffff1673ffffffffffffffffffffffffffffffffffffffff1614156110f157600760008281526020019081526020016000206040518060c001604052908160008201548152602001600182015481526020016002820160009054906101000a900473ffffffffffffffffffffffffffffffffffffffff1673ffffffffffffffffffffffffffffffffffffffff1673ffffffffffffffffffffffffffffffffffffffff1681526020016003820160009054906101000a900473ffffffffffffffffffffffffffffffffffffffff1673ffffffffffffffffffffffffffffffffffffffff1673ffffffffffffffffffffffffffffffffffffffff168152602001600482018054610fb290612db6565b80601f0160208091040260200160405190810160405280929190818152602001828054610fde90612db6565b801561102b5780601f106110005761010080835404028352916020019161102b565b820191906000526020600020905b81548152906001019060200180831161100e57829003601f168201915b5050505050815260200160058201805461104490612db6565b80601f016020809104026020016040519081016040528092919081815260200182805461107090612db6565b80156110bd5780601f10611092576101008083540402835291602001916110bd565b820191906000526020600020905b8154815290600101906020018083116110a057829003601f168201915b5050505050815250508383806110d290612d3e565b9450815181106110e5576110e4612de8565b5b60200260200101819052505b80806110fc90612d3e565b915050610e4e565b508192505050919050565b60606000600c8054905067ffffffffffffffff81111561113257611131612233565b5b60405190808252806020026020018201604052801561116b57816020015b611158611f76565b8152602001906001900390816111505790505b5090506000805b600c8054905081101561137e57600660006001836111909190612e17565b81526020019081526020016000206040518060c00160405290816000820154815260200160018201548152602001600282015481526020016003820160009054906101000a900473ffffffffffffffffffffffffffffffffffffffff1673ffffffffffffffffffffffffffffffffffffffff1673ffffffffffffffffffffffffffffffffffffffff16815260200160048201805461122d90612db6565b80601f016020809104026020016040519081016040528092919081815260200182805461125990612db6565b80156112a65780601f1061127b576101008083540402835291602001916112a6565b820191906000526020600020905b81548152906001019060200180831161128957829003601f168201915b505050505081526020016005820180546112bf90612db6565b80601f01602080910402602001604051908101604052809291908181526020018280546112eb90612db6565b80156113385780601f1061130d57610100808354040283529160200191611338565b820191906000526020600020905b81548152906001019060200180831161131b57829003601f168201915b50505050508152505083838061134d90612d3e565b9450815181106113605761135f612de8565b5b6020026020010181905250808061137690612d3e565b915050611172565b50819250505090565b61139b816000611d7190919063ffffffff16565b156113db576040517f08c379a00000000000000000000000000000000000000000000000000000000081526004016113d290612eb9565b60405180910390fd5b6113ef816001611d7190919063ffffffff16565b1561142f576040517f08c379a000000000000000000000000000000000000000000000000000000000815260040161142690612f25565b60405180910390fd5b611443816002611d7190919063ffffffff16565b15611483576040517f08c379a000000000000000000000000000000000000000000000000000000000815260040161147a90612f91565b60405180910390fd5b6000600560008373ffffffffffffffffffffffffffffffffffffffff1673ffffffffffffffffffffffffffffffffffffffff1681526020019081526020016000209050818160000160006101000a81548173ffffffffffffffffffffffffffffffffffffffff021916908373ffffffffffffffffffffffffffffffffffffffff1602179055506040518060400160405280600881526020017f70617373776f7264000000000000000000000000000000000000000000000000815250816001019080519060200190611556929190611e03565b5061156b826001611cc590919063ffffffff16565b5050565b60006006600085815260200190815260200160002090508281600501908051906020019061159e929190611e03565b5081816002018190555050505050565b600e60008154809291906115c190612d3e565b9190505550600060076000600e5481526020019081526020016000209050600e548160000181905550858160010181905550848160020160006101000a81548173ffffffffffffffffffffffffffffffffffffffff021916908373ffffffffffffffffffffffffffffffffffffffff160217905550838160030160006101000a81548173ffffffffffffffffffffffffffffffffffffffff021916908373ffffffffffffffffffffffffffffffffffffffff16021790555082816005019080519060200190611691929190611e03565b50818160040190805190602001906116aa929190611e03565b506116b88683600e5461156f565b600d81908060018154018082558091505060019003906000526020600020906006020160009091909190915060008201548160000155600182015481600101556002820160009054906101000a900473ffffffffffffffffffffffffffffffffffffffff168160020160006101000a81548173ffffffffffffffffffffffffffffffffffffffff021916908373ffffffffffffffffffffffffffffffffffffffff1602179055506003820160009054906101000a900473ffffffffffffffffffffffffffffffffffffffff168160030160006101000a81548173ffffffffffffffffffffffffffffffffffffffff021916908373ffffffffffffffffffffffffffffffffffffffff16021790555060048201816004019080546117da90612db6565b6117e5929190611e89565b5060058201816005019080546117fa90612db6565b611805929190611e89565b505050505050505050565b60606000600d8054905067ffffffffffffffff81111561183357611832612233565b5b60405190808252806020026020018201604052801561186c57816020015b611859611fc2565b8152602001906001900390816118515790505b5090506000805b600c805490508111611b29578473ffffffffffffffffffffffffffffffffffffffff166007600083815260200190815260200160002060030160009054906101000a900473ffffffffffffffffffffffffffffffffffffffff1673ffffffffffffffffffffffffffffffffffffffff161415611b1657600760008281526020019081526020016000206040518060c001604052908160008201548152602001600182015481526020016002820160009054906101000a900473ffffffffffffffffffffffffffffffffffffffff1673ffffffffffffffffffffffffffffffffffffffff1673ffffffffffffffffffffffffffffffffffffffff1681526020016003820160009054906101000a900473ffffffffffffffffffffffffffffffffffffffff1673ffffffffffffffffffffffffffffffffffffffff1673ffffffffffffffffffffffffffffffffffffffff1681526020016004820180546119d790612db6565b80601f0160208091040260200160405190810160405280929190818152602001828054611a0390612db6565b8015611a505780601f10611a2557610100808354040283529160200191611a50565b820191906000526020600020905b815481529060010190602001808311611a3357829003601f168201915b50505050508152602001600582018054611a6990612db6565b80601f0160208091040260200160405190810160405280929190818152602001828054611a9590612db6565b8015611ae25780601f10611ab757610100808354040283529160200191611ae2565b820191906000526020600020905b815481529060010190602001808311611ac557829003601f168201915b505050505081525050838380611af790612d3e565b945081518110611b0a57611b09612de8565b5b60200260200101819052505b8080611b2190612d3e565b915050611873565b508192505050919050565b611b3c612024565b611b50336001611d7190919063ffffffff16565b611b5957600080fd5b611b61612024565b60005b601054811015611cbb578360086000838152602001908152602001600020600101541415611ca8576008600082815260200190815260200160002060405180608001604052908160008201548152602001600182015481526020016002820154815260200160038201805480602002602001604051908101604052809291908181526020016000905b82821015611c99578382906000526020600020018054611c0c90612db6565b80601f0160208091040260200160405190810160405280929190818152602001828054611c3890612db6565b8015611c855780601f10611c5a57610100808354040283529160200191611c85565b820191906000526020600020905b815481529060010190602001808311611c6857829003601f168201915b505050505081526020019060010190611bed565b50505050815250509150611cbb565b8080611cb390612d3e565b915050611b64565b5080915050919050565b600073ffffffffffffffffffffffffffffffffffffffff168173ffffffffffffffffffffffffffffffffffffffff161415611cff57600080fd5b611d098282611d71565b15611d1357600080fd5b60018260000160008373ffffffffffffffffffffffffffffffffffffffff1673ffffffffffffffffffffffffffffffffffffffff16815260200190815260200160002060006101000a81548160ff0219169083151502179055505050565b60008073ffffffffffffffffffffffffffffffffffffffff168273ffffffffffffffffffffffffffffffffffffffff161415611dac57600080fd5b8260000160008373ffffffffffffffffffffffffffffffffffffffff1673ffffffffffffffffffffffffffffffffffffffff16815260200190815260200160002060009054906101000a900460ff16905092915050565b828054611e0f90612db6565b90600052602060002090601f016020900481019282611e315760008555611e78565b82601f10611e4a57805160ff1916838001178555611e78565b82800160010185558215611e78579182015b82811115611e77578251825591602001919060010190611e5c565b5b509050611e85919061204c565b5090565b828054611e9590612db6565b90600052602060002090601f016020900481019282611eb75760008555611f05565b82601f10611ec85780548555611f05565b82800160010185558215611f0557600052602060002091601f016020900482015b82811115611f04578254825591600101919060010190611ee9565b5b509050611f12919061204c565b5090565b828054828255906000526020600020908101928215611f65579160200282015b82811115611f64578251829080519060200190611f54929190611e03565b5091602001919060010190611f36565b5b509050611f729190612069565b5090565b6040518060c00160405280600081526020016000815260200160008152602001600073ffffffffffffffffffffffffffffffffffffffff16815260200160608152602001606081525090565b6040518060c001604052806000815260200160008152602001600073ffffffffffffffffffffffffffffffffffffffff168152602001600073ffffffffffffffffffffffffffffffffffffffff16815260200160608152602001606081525090565b6040518060800160405280600081526020016000815260200160008152602001606081525090565b5b8082111561206557600081600090555060010161204d565b5090565b5b808211156120895760008181612080919061208d565b5060010161206a565b5090565b50805461209990612db6565b6000825580601f106120ab57506120ca565b601f0160209004906000526020600020908101906120c9919061204c565b5b50565b6000604051905090565b600080fd5b600080fd5b6000819050919050565b6120f4816120e1565b81146120ff57600080fd5b50565b600081359050612111816120eb565b92915050565b6000806040838503121561212e5761212d6120d7565b5b600061213c85828601612102565b925050602061214d85828601612102565b9150509250929050565b600073ffffffffffffffffffffffffffffffffffffffff82169050919050565b600061218282612157565b9050919050565b61219281612177565b811461219d57600080fd5b50565b6000813590506121af81612189565b92915050565b6000602082840312156121cb576121ca6120d7565b5b60006121d9848285016121a0565b91505092915050565b60008115159050919050565b6121f7816121e2565b82525050565b600060208201905061221260008301846121ee565b92915050565b600080fd5b600080fd5b6000601f19601f8301169050919050565b7f4e487b7100000000000000000000000000000000000000000000000000000000600052604160045260246000fd5b61226b82612222565b810181811067ffffffffffffffff8211171561228a57612289612233565b5b80604052505050565b600061229d6120cd565b90506122a98282612262565b919050565b600067ffffffffffffffff8211156122c9576122c8612233565b5b6122d282612222565b9050602081019050919050565b82818337600083830152505050565b60006123016122fc846122ae565b612293565b90508281526020810184848401111561231d5761231c61221d565b5b6123288482856122df565b509392505050565b600082601f83011261234557612344612218565b5b81356123558482602086016122ee565b91505092915050565b60008060008060808587031215612378576123776120d7565b5b600061238687828801612102565b9450506020612397878288016121a0565b935050604085013567ffffffffffffffff8111156123b8576123b76120dc565b5b6123c487828801612330565b925050606085013567ffffffffffffffff8111156123e5576123e46120dc565b5b6123f187828801612330565b91505092959194509250565b600067ffffffffffffffff82111561241857612417612233565b5b602082029050602081019050919050565b600080fd5b600061244161243c846123fd565b612293565b9050808382526020820190506020840283018581111561246457612463612429565b5b835b818110156124ab57803567ffffffffffffffff81111561248957612488612218565b5b8086016124968982612330565b85526020850194505050602081019050612466565b5050509392505050565b600082601f8301126124ca576124c9612218565b5b81356124da84826020860161242e565b91505092915050565b600080600080608085870312156124fd576124fc6120d7565b5b600061250b87828801612102565b945050602061251c87828801612102565b935050604061252d87828801612102565b925050606085013567ffffffffffffffff81111561254e5761254d6120dc565b5b61255a878288016124b5565b91505092959194509250565b600081519050919050565b600082825260208201905092915050565b6000819050602082019050919050565b61259b816120e1565b82525050565b6125aa81612177565b82525050565b600081519050919050565b600082825260208201905092915050565b60005b838110156125ea5780820151818401526020810190506125cf565b838111156125f9576000848401525b50505050565b600061260a826125b0565b61261481856125bb565b93506126248185602086016125cc565b61262d81612222565b840191505092915050565b600060c0830160008301516126506000860182612592565b5060208301516126636020860182612592565b5060408301516126766040860182612592565b50606083015161268960608601826125a1565b50608083015184820360808601526126a182826125ff565b91505060a083015184820360a08601526126bb82826125ff565b9150508091505092915050565b60006126d48383612638565b905092915050565b6000602082019050919050565b60006126f482612566565b6126fe8185612571565b93508360208202850161271085612582565b8060005b8581101561274c578484038952815161272d85826126c8565b9450612738836126dc565b925060208a01995050600181019050612714565b50829750879550505050505092915050565b6000602082019050818103600083015261277881846126e9565b905092915050565b60008060408385031215612797576127966120d7565b5b60006127a5858286016121a0565b925050602083013567ffffffffffffffff8111156127c6576127c56120dc565b5b6127d285828601612330565b9150509250929050565b600080604083850312156127f3576127f26120d7565b5b600061280185828601612102565b925050602083013567ffffffffffffffff811115612822576128216120dc565b5b61282e85828601612330565b9150509250929050565b61284181612177565b82525050565b600060208201905061285c6000830184612838565b92915050565b600081519050919050565b600082825260208201905092915050565b6000819050602082019050919050565b600060c0830160008301516128a66000860182612592565b5060208301516128b96020860182612592565b5060408301516128cc60408601826125a1565b5060608301516128df60608601826125a1565b50608083015184820360808601526128f782826125ff565b91505060a083015184820360a086015261291182826125ff565b9150508091505092915050565b600061292a838361288e565b905092915050565b6000602082019050919050565b600061294a82612862565b612954818561286d565b9350836020820285016129668561287e565b8060005b858110156129a25784840389528151612983858261291e565b945061298e83612932565b925060208a0199505060018101905061296a565b50829750879550505050505092915050565b600060208201905081810360008301526129ce818461293f565b905092915050565b6000806000606084860312156129ef576129ee6120d7565b5b60006129fd86828701612102565b935050602084013567ffffffffffffffff811115612a1e57612a1d6120dc565b5b612a2a86828701612330565b9250506040612a3b86828701612102565b9150509250925092565b600080600080600060a08688031215612a6157612a606120d7565b5b6000612a6f88828901612102565b9550506020612a80888289016121a0565b9450506040612a91888289016121a0565b935050606086013567ffffffffffffffff811115612ab257612ab16120dc565b5b612abe88828901612330565b925050608086013567ffffffffffffffff811115612adf57612ade6120dc565b5b612aeb88828901612330565b9150509295509295909350565b600060208284031215612b0e57612b0d6120d7565b5b6000612b1c84828501612102565b91505092915050565b600081519050919050565b600082825260208201905092915050565b6000819050602082019050919050565b6000612b5d83836125ff565b905092915050565b6000602082019050919050565b6000612b7d82612b25565b612b878185612b30565b935083602082028501612b9985612b41565b8060005b85811015612bd55784840389528151612bb68582612b51565b9450612bc183612b65565b925060208a01995050600181019050612b9d565b50829750879550505050505092915050565b6000608083016000830151612bff6000860182612592565b506020830151612c126020860182612592565b506040830151612c256040860182612592565b5060608301518482036060860152612c3d8282612b72565b9150508091505092915050565b60006020820190508181036000830152612c648184612be7565b905092915050565b600082825260208201905092915050565b7f4f6e6c79204167656e63792043616e2041636365737320746869732066756e6360008201527f74696f6e00000000000000000000000000000000000000000000000000000000602082015250565b6000612cd9602483612c6c565b9150612ce482612c7d565b604082019050919050565b60006020820190508181036000830152612d0881612ccc565b9050919050565b7f4e487b7100000000000000000000000000000000000000000000000000000000600052601160045260246000fd5b6000612d49826120e1565b91507fffffffffffffffffffffffffffffffffffffffffffffffffffffffffffffffff821415612d7c57612d7b612d0f565b5b600182019050919050565b7f4e487b7100000000000000000000000000000000000000000000000000000000600052602260045260246000fd5b60006002820490506001821680612dce57607f821691505b60208210811415612de257612de1612d87565b5b50919050565b7f4e487b7100000000000000000000000000000000000000000000000000000000600052603260045260246000fd5b6000612e22826120e1565b9150612e2d836120e1565b9250827fffffffffffffffffffffffffffffffffffffffffffffffffffffffffffffffff03821115612e6257612e61612d0f565b5b828201905092915050565b7f7573657249442069732041646d696e0000000000000000000000000000000000600082015250565b6000612ea3600f83612c6c565b9150612eae82612e6d565b602082019050919050565b60006020820190508181036000830152612ed281612e96565b9050919050565b7f757365724964206973204167656e740000000000000000000000000000000000600082015250565b6000612f0f600f83612c6c565b9150612f1a82612ed9565b602082019050919050565b60006020820190508181036000830152612f3e81612f02565b9050919050565b7f5573657249642069732050617469656e74000000000000000000000000000000600082015250565b6000612f7b601183612c6c565b9150612f8682612f45565b602082019050919050565b60006020820190508181036000830152612faa81612f6e565b905091905056fe4d65646963616c205265636f726473205375626d6974746564200a204177616974696e67204167656e6379a2646970667358221220b4ce424691300d7764d678a375e6e3528f39395ff82da09f4cd78d3ce94dfb6364736f6c634300080b0033",
  "immutableReferences": {},
  "source": "// SPDX-License-Identifier: MIT\r\npragma solidity >=0.4.22 <0.9.0;\r\n\r\nimport \"./Roles.sol\";\r\n\r\ncontract Insure {\r\n  using Roles for Roles.Role;\r\n\r\n  Roles.Role private admin;\r\n  Roles.Role private agent;\r\n  Roles.Role private user;\r\n\r\n  struct User {\r\n    address pID;\r\n    string pwd;\r\n  }\r\n\r\n  struct Agent {\r\n    address aID;\r\n    string pwd;\r\n  }\r\n\r\n  struct Bill {\r\n    uint256 id;\r\n    uint256 bID;\r\n    uint256 cID;\r\n    address pID;\r\n    string amount;\r\n    string status;\r\n  }\r\n\r\n  struct Claim {\r\n    uint256 id;\r\n    uint256 bID;\r\n    address pID;\r\n    address aID;\r\n    string status;\r\n    string amount;\r\n  }\r\n\r\n  struct MedicalRecords {\r\n    uint256 bID;\r\n    uint256 cID;\r\n    uint256 pID;\r\n    string[] files;\r\n  }\r\n\r\n  address admin_id;\r\n\r\n  mapping(address => User) uMap;\r\n  mapping(address => Agent) aMap;\r\n  mapping(uint256 => Bill) bMap;\r\n  mapping(uint256 => Claim) cMap;\r\n  mapping(uint256 => MedicalRecords) mrMap;\r\n\r\n  mapping(address => Bill[]) bMaps;\r\n  mapping(address => Claim[]) uClaimMap;\r\n  mapping(address => Claim[]) aClaimMap;\r\n\r\n  Bill[] bills;\r\n  Claim[] claims;\r\n  uint256 cID;\r\n  uint256 bID;\r\n  uint256 mID;\r\n\r\n  constructor() {\r\n    admin_id = msg.sender;\r\n    admin.add(admin_id);\r\n    cID = 0;\r\n    bID = 0;\r\n  }\r\n\r\n  function isAdmin(address id) public view returns (bool) {\r\n    return admin.has(id);\r\n  }\r\n\r\n  function getAdmin() public view returns (address) {\r\n    return admin_id;\r\n  }\r\n\r\n  function isUser(address id) public view returns (bool) {\r\n    return user.has(id);\r\n  }\r\n\r\n  function isAgent(address id) public view returns (bool) {\r\n    return agent.has(id);\r\n  }\r\n\r\n  function addUser(address _pID, string memory _pwd) public {\r\n    require(!admin.has(_pID));\r\n    require(!agent.has(_pID));\r\n    require(!user.has(_pID));\r\n    User storage u = uMap[_pID];\r\n    u.pID = _pID;\r\n    u.pwd = _pwd;\r\n\r\n    user.add(_pID);\r\n  }\r\n\r\n  function addAgent(address _aID) public {\r\n    require(!admin.has(_aID), \"userID is Admin\");\r\n    require(!agent.has(_aID), \"userId is Agent\");\r\n    require(!user.has(_aID), \"UserId is Patient\");\r\n    Agent storage a = aMap[_aID];\r\n    a.aID = _aID;\r\n    a.pwd = \"password\";\r\n\r\n    agent.add(_aID);\r\n  }\r\n\r\n  function addBill(\r\n    uint256 _id,\r\n    address _pID,\r\n    string memory _amount,\r\n    string memory _status\r\n  ) public {\r\n    bID++;\r\n    Bill storage b = bMap[bID];\r\n    b.id = bID;\r\n    b.bID = _id;\r\n    b.pID = _pID;\r\n    b.amount = _amount;\r\n    b.status = _status;\r\n\r\n    Bill[] storage bs = bMaps[_pID];\r\n    bs.push(b);\r\n\r\n    bills.push(b);\r\n  }\r\n\r\n  function getBills(address _id) public view returns (Bill[] memory) {\r\n    Bill[] memory _bills = new Bill[](bMaps[_id].length);\r\n    uint256 j = 0;\r\n    for (uint256 i = 0; i <= bills.length; i++) {\r\n      if (bMap[i].pID == _id) {\r\n        _bills[j++] = bMap[i];\r\n      }\r\n    }\r\n    return _bills;\r\n  }\r\n\r\n  function getAllBills() public view returns (Bill[] memory) {\r\n    Bill[] memory _bills = new Bill[](bills.length);\r\n    uint256 j = 0;\r\n    for (uint256 i = 0; i < bills.length; i++) {\r\n      _bills[j++] = bMap[i + 1];\r\n    }\r\n    return _bills;\r\n  }\r\n\r\n  function updateInsurance(\r\n    uint256 _id,\r\n    string memory _status,\r\n    uint256 _cID\r\n  ) public {\r\n    Bill storage b = bMap[_id];\r\n    b.status = _status;\r\n    b.cID = _cID;\r\n  }\r\n\r\n  function claimInsurance(\r\n    uint256 _bID,\r\n    address _pID,\r\n    address _aID,\r\n    string memory _amount,\r\n    string memory _status\r\n  ) public {\r\n    cID++;\r\n    Claim storage c = cMap[cID];\r\n\r\n    c.id = cID;\r\n    c.bID = _bID;\r\n    c.pID = _pID;\r\n    c.aID = _aID;\r\n    c.amount = _amount;\r\n    c.status = _status;\r\n\r\n    updateInsurance(_bID, _status, cID);\r\n\r\n    claims.push(c);\r\n  }\r\n\r\n  function getUserClaims(address _pID) public view returns (Claim[] memory) {\r\n    Claim[] memory _claims = new Claim[](claims.length);\r\n    uint256 j = 0;\r\n    for (uint256 i = 0; i <= bills.length; i++) {\r\n      if (cMap[i].pID == _pID) {\r\n        _claims[j++] = cMap[i];\r\n      }\r\n    }\r\n    return _claims;\r\n  }\r\n\r\n  function getAgentClaims(address _aID) public view returns (Claim[] memory) {\r\n    Claim[] memory _claims = new Claim[](claims.length);\r\n    uint256 j = 0;\r\n    for (uint256 i = 0; i <= bills.length; i++) {\r\n      if (cMap[i].aID == _aID) {\r\n        _claims[j++] = cMap[i];\r\n      }\r\n    }\r\n    return _claims;\r\n  }\r\n\r\n  function updateClaim(uint256 _cID, string memory _status) public {\r\n    Claim storage c = cMap[_cID];\r\n    c.status = _status;\r\n  }\r\n\r\n  function addMedicalRecords(\r\n    uint256 _bID,\r\n    uint256 _cID,\r\n    uint256 _pID,\r\n    string[] memory _files\r\n  ) public {\r\n    require(admin.has(msg.sender));\r\n    MedicalRecords storage mr = mrMap[mID++];\r\n    mr.bID = _bID;\r\n    mr.cID = _cID;\r\n    mr.pID = _pID;\r\n    mr.files = _files;\r\n\r\n    string memory _status = \"Medical Records Submitted \\n Awaiting Agency\";\r\n\r\n    updateInsurance(_bID, _status, _cID);\r\n    updateClaim(_cID, _status);\r\n  }\r\n\r\n  function getMedicalRecords(uint256 _cID)\r\n  public\r\n  view\r\n  returns (MedicalRecords memory)\r\n  {\r\n    require(agent.has(msg.sender));\r\n    MedicalRecords memory mr;\r\n    for (uint256 i = 0; i < mID; i++) {\r\n      if (mrMap[i].cID == _cID) {\r\n        mr = mrMap[i];\r\n        break;\r\n      }\r\n    }\r\n    return mr;\r\n  }\r\n\r\n  function acceptClaim(uint256 _cID, uint256 _bID) public {\r\n    require(agent.has(msg.sender), \"Only Agency Can Access this function\");\r\n    string memory _status = \"Claim Accepted\";\r\n    updateClaim(_cID, _status);\r\n    updateInsurance(_bID, _status, _cID);\r\n  }\r\n\r\n  function rejectClaim(uint256 _cID, uint256 _bID) public {\r\n    require(agent.has(msg.sender), \"Only Agency Can Access this function\");\r\n    string memory _status = \"Claim Rejected\";\r\n    updateClaim(_cID, _status);\r\n    updateInsurance(_bID, _status, _cID);\r\n  }\r\n\r\n  function sendPayment(uint256 _cID, uint256 _bID) public {\r\n    string memory _status = \"Bill Payed\";\r\n    updateClaim(_cID, _status);\r\n    updateInsurance(_bID, _status, _cID);\r\n  }\r\n}\r\n",
  "sourcePath": "C:\\Users\\appaj\\Downloads\\Insure 1.0-20240427T152450Z-001\\Insure 1.0\\Client\\contracts\\Insure.sol",
  "compiler": {
    "name": "solc",
    "version": "0.8.11+commit.d7f03943.Emscripten.clang"
  },
  "schemaVersion": "3.4.16",
  "updatedAt": "2024-04-28T05:45:06.572Z",
  "networkType": "ethereum",
  "devdoc": {
    "kind": "dev",
    "methods": {},
    "version": 1
  },
  "userdoc": {
    "kind": "user",
    "methods": {},
    "version": 1
  }
}