{
  "contractName": "Insure",
  "abi": [
    {
      "inputs": [],
      "stateMutability": "nonpayable",
      "type": "constructor"
    },
    {
      "inputs": [
        {
          "internalType": "address",
          "name": "id",
          "type": "address"
        }
      ],
      "name": "isAdmin",
      "outputs": [
        {
          "internalType": "bool",
          "name": "",
          "type": "bool"
        }
      ],
      "stateMutability": "view",
      "type": "function"
    },
    {
      "inputs": [],
      "name": "getAdmin",
      "outputs": [
        {
          "internalType": "address",
          "name": "",
          "type": "address"
        }
      ],
      "stateMutability": "view",
      "type": "function"
    },
    {
      "inputs": [
        {
          "internalType": "address",
          "name": "id",
          "type": "address"
        }
      ],
      "name": "isUser",
      "outputs": [
        {
          "internalType": "bool",
          "name": "",
          "type": "bool"
        }
      ],
      "stateMutability": "view",
      "type": "function"
    },
    {
      "inputs": [
        {
          "internalType": "address",
          "name": "id",
          "type": "address"
        }
      ],
      "name": "isAgent",
      "outputs": [
        {
          "internalType": "bool",
          "name": "",
          "type": "bool"
        }
      ],
      "stateMutability": "view",
      "type": "function"
    },
    {
      "inputs": [
        {
          "internalType": "address",
          "name": "_pID",
          "type": "address"
        },
        {
          "internalType": "string",
          "name": "_pwd",
          "type": "string"
        }
      ],
      "name": "addUser",
      "outputs": [],
      "stateMutability": "nonpayable",
      "type": "function"
    },
    {
      "inputs": [
        {
          "internalType": "address",
          "name": "_aID",
          "type": "address"
        }
      ],
      "name": "addAgent",
      "outputs": [],
      "stateMutability": "nonpayable",
      "type": "function"
    },
    {
      "inputs": [
        {
          "internalType": "uint256",
          "name": "_id",
          "type": "uint256"
        },
        {
          "internalType": "address",
          "name": "_pID",
          "type": "address"
        },
        {
          "internalType": "string",
          "name": "_amount",
          "type": "string"
        },
        {
          "internalType": "string",
          "name": "_status",
          "type": "string"
        }
      ],
      "name": "addBill",
      "outputs": [],
      "stateMutability": "nonpayable",
      "type": "function"
    },
    {
      "inputs": [
        {
          "internalType": "address",
          "name": "_id",
          "type": "address"
        }
      ],
      "name": "getBills",
      "outputs": [
        {
          "components": [
            {
              "internalType": "uint256",
              "name": "id",
              "type": "uint256"
            },
            {
              "internalType": "uint256",
              "name": "bID",
              "type": "uint256"
            },
            {
              "internalType": "uint256",
              "name": "cID",
              "type": "uint256"
            },
            {
              "internalType": "address",
              "name": "pID",
              "type": "address"
            },
            {
              "internalType": "string",
              "name": "amount",
              "type": "string"
            },
            {
              "internalType": "string",
              "name": "status",
              "type": "string"
            }
          ],
          "internalType": "struct Insure.Bill[]",
          "name": "",
          "type": "tuple[]"
        }
      ],
      "stateMutability": "view",
      "type": "function"
    },
    {
      "inputs": [],
      "name": "getAllBills",
      "outputs": [
        {
          "components": [
            {
              "internalType": "uint256",
              "name": "id",
              "type": "uint256"
            },
            {
              "internalType": "uint256",
              "name": "bID",
              "type": "uint256"
            },
            {
              "internalType": "uint256",
              "name": "cID",
              "type": "uint256"
            },
            {
              "internalType": "address",
              "name": "pID",
              "type": "address"
            },
            {
              "internalType": "string",
              "name": "amount",
              "type": "string"
            },
            {
              "internalType": "string",
              "name": "status",
              "type": "string"
            }
          ],
          "internalType": "struct Insure.Bill[]",
          "name": "",
          "type": "tuple[]"
        }
      ],
      "stateMutability": "view",
      "type": "function"
    },
    {
      "inputs": [
        {
          "internalType": "uint256",
          "name": "_id",
          "type": "uint256"
        },
        {
          "internalType": "string",
          "name": "_status",
          "type": "string"
        },
        {
          "internalType": "uint256",
          "name": "_cID",
          "type": "uint256"
        }
      ],
      "name": "updateInsurance",
      "outputs": [],
      "stateMutability": "nonpayable",
      "type": "function"
    },
    {
      "inputs": [
        {
          "internalType": "uint256",
          "name": "_bID",
          "type": "uint256"
        },
        {
          "internalType": "address",
          "name": "_pID",
          "type": "address"
        },
        {
          "internalType": "address",
          "name": "_aID",
          "type": "address"
        },
        {
          "internalType": "string",
          "name": "_amount",
          "type": "string"
        },
        {
          "internalType": "string",
          "name": "_status",
          "type": "string"
        }
      ],
      "name": "claimInsurance",
      "outputs": [],
      "stateMutability": "nonpayable",
      "type": "function"
    },
    {
      "inputs": [
        {
          "internalType": "address",
          "name": "_pID",
          "type": "address"
        }
      ],
      "name": "getUserClaims",
      "outputs": [
        {
          "components": [
            {
              "internalType": "uint256",
              "name": "id",
              "type": "uint256"
            },
            {
              "internalType": "uint256",
              "name": "bID",
              "type": "uint256"
            },
            {
              "internalType": "address",
              "name": "pID",
              "type": "address"
            },
            {
              "internalType": "address",
              "name": "aID",
              "type": "address"
            },
            {
              "internalType": "string",
              "name": "status",
              "type": "string"
            },
            {
              "internalType": "string",
              "name": "amount",
              "type": "string"
            }
          ],
          "internalType": "struct Insure.Claim[]",
          "name": "",
          "type": "tuple[]"
        }
      ],
      "stateMutability": "view",
      "type": "function"
    },
    {
      "inputs": [
        {
          "internalType": "address",
          "name": "_aID",
          "type": "address"
        }
      ],
      "name": "getAgentClaims",
      "outputs": [
        {
          "components": [
            {
              "internalType": "uint256",
              "name": "id",
              "type": "uint256"
            },
            {
              "internalType": "uint256",
              "name": "bID",
              "type": "uint256"
            },
            {
              "internalType": "address",
              "name": "pID",
              "type": "address"
            },
            {
              "internalType": "address",
              "name": "aID",
              "type": "address"
            },
            {
              "internalType": "string",
              "name": "status",
              "type": "string"
            },
            {
              "internalType": "string",
              "name": "amount",
              "type": "string"
            }
          ],
          "internalType": "struct Insure.Claim[]",
          "name": "",
          "type": "tuple[]"
        }
      ],
      "stateMutability": "view",
      "type": "function"
    },
    {
      "inputs": [
        {
          "internalType": "uint256",
          "name": "_cID",
          "type": "uint256"
        },
        {
          "internalType": "string",
          "name": "_status",
          "type": "string"
        }
      ],
      "name": "updateClaim",
      "outputs": [],
      "stateMutability": "nonpayable",
      "type": "function"
    },
    {
      "inputs": [
        {
          "internalType": "uint256",
          "name": "_bID",
          "type": "uint256"
        },
        {
          "internalType": "uint256",
          "name": "_cID",
          "type": "uint256"
        },
        {
          "internalType": "uint256",
          "name": "_pID",
          "type": "uint256"
        },
        {
          "internalType": "string[]",
          "name": "_files",
          "type": "string[]"
        }
      ],
      "name": "addMedicalRecords",
      "outputs": [],
      "stateMutability": "nonpayable",
      "type": "function"
    },
    {
      "inputs": [
        {
          "internalType": "uint256",
          "name": "_cID",
          "type": "uint256"
        }
      ],
      "name": "getMedicalRecords",
      "outputs": [
        {
          "components": [
            {
              "internalType": "uint256",
              "name": "bID",
              "type": "uint256"
            },
            {
              "internalType": "uint256",
              "name": "cID",
              "type": "uint256"
            },
            {
              "internalType": "uint256",
              "name": "pID",
              "type": "uint256"
            },
            {
              "internalType": "string[]",
              "name": "files",
              "type": "string[]"
            }
          ],
          "internalType": "struct Insure.MedicalRecords",
          "name": "",
          "type": "tuple"
        }
      ],
      "stateMutability": "view",
      "type": "function"
    },
    {
      "inputs": [
        {
          "internalType": "uint256",
          "name": "_cID",
          "type": "uint256"
        },
        {
          "internalType": "uint256",
          "name": "_bID",
          "type": "uint256"
        }
      ],
      "name": "acceptClaim",
      "outputs": [],
      "stateMutability": "nonpayable",
      "type": "function"
    },
    {
      "inputs": [
        {
          "internalType": "uint256",
          "name": "_cID",
          "type": "uint256"
        },
        {
          "internalType": "uint256",
          "name": "_bID",
          "type": "uint256"
        }
      ],
      "name": "rejectClaim",
      "outputs": [],
      "stateMutability": "nonpayable",
      "type": "function"
    },
    {
      "inputs": [
        {
          "internalType": "uint256",
          "name": "_cID",
          "type": "uint256"
        },
        {
          "internalType": "uint256",
          "name": "_bID",
          "type": "uint256"
        }
      ],
      "name": "sendPayment",
      "outputs": [],
      "stateMutability": "nonpayable",
      "type": "function"
    }
  ],
  "bytecode": "0x608060405234801562000010575f80fd5b503360035f6101000a81548173ffffffffffffffffffffffffffffffffffffffff021916908373ffffffffffffffffffffffffffffffffffffffff1602179055506200008760035f9054906101000a900473ffffffffffffffffffffffffffffffffffffffff165f6200009b60201b90919060201c565b5f600e819055505f600f81905550620001d5565b5f73ffffffffffffffffffffffffffffffffffffffff168173ffffffffffffffffffffffffffffffffffffffff1603620000d3575f80fd5b620000e582826200014960201b60201c565b15620000ef575f80fd5b6001825f015f8373ffffffffffffffffffffffffffffffffffffffff1673ffffffffffffffffffffffffffffffffffffffff1681526020019081526020015f205f6101000a81548160ff0219169083151502179055505050565b5f8073ffffffffffffffffffffffffffffffffffffffff168273ffffffffffffffffffffffffffffffffffffffff160362000182575f80fd5b825f015f8373ffffffffffffffffffffffffffffffffffffffff1673ffffffffffffffffffffffffffffffffffffffff1681526020019081526020015f205f9054906101000a900460ff16905092915050565b61308980620001e35f395ff3fe608060405234801561000f575f80fd5b506004361061011f575f3560e01c80634b68d431116100ab57806384e798421161006f57806384e7984214610313578063b668219e1461032f578063da4db65d1461034b578063e165c26814610367578063ffbcfac2146103975761011f565b80634b68d4311461026f5780634f5e63071461028b5780636e9960c3146102a75780637bcb4a64146102c5578063818e1f1a146102f55761011f565b8063323f040f116100f2578063323f040f146101bb5780633cb74917146101d757806340ebf59e146101f35780634209fff11461020f57806345a132aa1461023f5761011f565b80631d260f8e146101235780631ffbb0641461013f5780632068eee41461016f57806324d7806c1461018b575b5f80fd5b61013d60048036038101906101389190611ec6565b6103c7565b005b61015960048036038101906101549190611f5e565b61046d565b6040516101669190611fa3565b60405180910390f35b61018960048036038101906101849190611ec6565b610489565b005b6101a560048036038101906101a09190611f5e565b6104dc565b6040516101b29190611fa3565b60405180910390f35b6101d560048036038101906101d091906120f8565b6104f7565b005b6101f160048036038101906101ec9190611ec6565b610790565b005b61020d60048036038101906102089190612276565b610836565b005b61022960048036038101906102249190611f5e565b6108e6565b6040516102369190611fa3565b60405180910390f35b61025960048036038101906102549190611f5e565b610902565b60405161026691906124d6565b60405180910390f35b610289600480360381019061028491906124f6565b610c07565b005b6102a560048036038101906102a09190612550565b610d09565b005b6102af610d34565b6040516102bc91906125b9565b60405180910390f35b6102df60048036038101906102da9190611f5e565b610d5c565b6040516102ec919061271a565b60405180910390f35b6102fd611071565b60405161030a91906124d6565b60405180910390f35b61032d60048036038101906103289190611f5e565b6112df565b005b6103496004803603810190610344919061273a565b6114ba565b005b610365600480360381019061036091906127a6565b6114ef565b005b610381600480360381019061037c9190611f5e565b61171d565b60405161038e919061271a565b60405180910390f35b6103b160048036038101906103ac9190612855565b611a32565b6040516103be919061299b565b60405180910390f35b6103db336001611bb690919063ffffffff16565b61041a576040517f08c379a000000000000000000000000000000000000000000000000000000000815260040161041190612a3b565b60405180910390fd5b5f6040518060400160405280600e81526020017f436c61696d204163636570746564000000000000000000000000000000000000815250905061045d8382610d09565b6104688282856114ba565b505050565b5f610482826001611bb690919063ffffffff16565b9050919050565b5f6040518060400160405280600a81526020017f42696c6c2050617965640000000000000000000000000000000000000000000081525090506104cc8382610d09565b6104d78282856114ba565b505050565b5f6104f0825f611bb690919063ffffffff16565b9050919050565b600f5f81548092919061050990612a86565b91905055505f60065f600f5481526020019081526020015f209050600f54815f018190555084816001018190555083816003015f6101000a81548173ffffffffffffffffffffffffffffffffffffffff021916908373ffffffffffffffffffffffffffffffffffffffff1602179055508281600401908161058a9190612cc7565b508181600501908161059c9190612cc7565b505f60095f8673ffffffffffffffffffffffffffffffffffffffff1673ffffffffffffffffffffffffffffffffffffffff1681526020019081526020015f2090508082908060018154018082558091505060019003905f5260205f2090600602015f909190919091505f820154815f01556001820154816001015560028201548160020155600382015f9054906101000a900473ffffffffffffffffffffffffffffffffffffffff16816003015f6101000a81548173ffffffffffffffffffffffffffffffffffffffff021916908373ffffffffffffffffffffffffffffffffffffffff1602179055506004820181600401908161069a9190612dab565b50600582018160050190816106af9190612dab565b505050600c82908060018154018082558091505060019003905f5260205f2090600602015f909190919091505f820154815f01556001820154816001015560028201548160020155600382015f9054906101000a900473ffffffffffffffffffffffffffffffffffffffff16816003015f6101000a81548173ffffffffffffffffffffffffffffffffffffffff021916908373ffffffffffffffffffffffffffffffffffffffff160217905550600482018160040190816107709190612dab565b50600582018160050190816107859190612dab565b505050505050505050565b6107a4336001611bb690919063ffffffff16565b6107e3576040517f08c379a00000000000000000000000000000000000000000000000000000000081526004016107da90612a3b565b60405180910390fd5b5f6040518060400160405280600e81526020017f436c61696d2052656a656374656400000000000000000000000000000000000081525090506108268382610d09565b6108318282856114ba565b505050565b610849335f611bb690919063ffffffff16565b610851575f80fd5b5f60085f60105f81548092919061086790612a86565b9190505581526020019081526020015f20905084815f0181905550838160010181905550828160020181905550818160030190805190602001906108ac929190611ce5565b505f6040518060600160405280602b8152602001613029602b913990506108d48682876114ba565b6108de8582610d09565b505050505050565b5f6108fb826002611bb690919063ffffffff16565b9050919050565b60605f60095f8473ffffffffffffffffffffffffffffffffffffffff1673ffffffffffffffffffffffffffffffffffffffff1681526020019081526020015f208054905067ffffffffffffffff81111561095f5761095e611fd4565b5b60405190808252806020026020018201604052801561099857816020015b610985611d3c565b81526020019060019003908161097d5790505b5090505f805b600c805490508111610bfc578473ffffffffffffffffffffffffffffffffffffffff1660065f8381526020019081526020015f206003015f9054906101000a900473ffffffffffffffffffffffffffffffffffffffff1673ffffffffffffffffffffffffffffffffffffffff1603610be95760065f8281526020019081526020015f206040518060c00160405290815f82015481526020016001820154815260200160028201548152602001600382015f9054906101000a900473ffffffffffffffffffffffffffffffffffffffff1673ffffffffffffffffffffffffffffffffffffffff1673ffffffffffffffffffffffffffffffffffffffff168152602001600482018054610aae90612afa565b80601f0160208091040260200160405190810160405280929190818152602001828054610ada90612afa565b8015610b255780601f10610afc57610100808354040283529160200191610b25565b820191905f5260205f20905b815481529060010190602001808311610b0857829003601f168201915b50505050508152602001600582018054610b3e90612afa565b80601f0160208091040260200160405190810160405280929190818152602001828054610b6a90612afa565b8015610bb55780601f10610b8c57610100808354040283529160200191610bb5565b820191905f5260205f20905b815481529060010190602001808311610b9857829003601f168201915b505050505081525050838380610bca90612a86565b945081518110610bdd57610bdc612e90565b5b60200260200101819052505b8080610bf490612a86565b91505061099e565b508192505050919050565b610c1a825f611bb690919063ffffffff16565b15610c23575f80fd5b610c37826001611bb690919063ffffffff16565b15610c40575f80fd5b610c54826002611bb690919063ffffffff16565b15610c5d575f80fd5b5f60045f8473ffffffffffffffffffffffffffffffffffffffff1673ffffffffffffffffffffffffffffffffffffffff1681526020019081526020015f20905082815f015f6101000a81548173ffffffffffffffffffffffffffffffffffffffff021916908373ffffffffffffffffffffffffffffffffffffffff16021790555081816001019081610cef9190612cc7565b50610d04836002611c4190919063ffffffff16565b505050565b5f60075f8481526020019081526020015f20905081816004019081610d2e9190612cc7565b50505050565b5f60035f9054906101000a900473ffffffffffffffffffffffffffffffffffffffff16905090565b60605f600d8054905067ffffffffffffffff811115610d7e57610d7d611fd4565b5b604051908082528060200260200182016040528015610db757816020015b610da4611d84565b815260200190600190039081610d9c5790505b5090505f805b600c805490508111611066578473ffffffffffffffffffffffffffffffffffffffff1660075f8381526020019081526020015f206002015f9054906101000a900473ffffffffffffffffffffffffffffffffffffffff1673ffffffffffffffffffffffffffffffffffffffff16036110535760075f8281526020019081526020015f206040518060c00160405290815f820154815260200160018201548152602001600282015f9054906101000a900473ffffffffffffffffffffffffffffffffffffffff1673ffffffffffffffffffffffffffffffffffffffff1673ffffffffffffffffffffffffffffffffffffffff168152602001600382015f9054906101000a900473ffffffffffffffffffffffffffffffffffffffff1673ffffffffffffffffffffffffffffffffffffffff1673ffffffffffffffffffffffffffffffffffffffff168152602001600482018054610f1890612afa565b80601f0160208091040260200160405190810160405280929190818152602001828054610f4490612afa565b8015610f8f5780601f10610f6657610100808354040283529160200191610f8f565b820191905f5260205f20905b815481529060010190602001808311610f7257829003601f168201915b50505050508152602001600582018054610fa890612afa565b80601f0160208091040260200160405190810160405280929190818152602001828054610fd490612afa565b801561101f5780601f10610ff65761010080835404028352916020019161101f565b820191905f5260205f20905b81548152906001019060200180831161100257829003601f168201915b50505050508152505083838061103490612a86565b94508151811061104757611046612e90565b5b60200260200101819052505b808061105e90612a86565b915050610dbd565b508192505050919050565b60605f600c8054905067ffffffffffffffff81111561109357611092611fd4565b5b6040519080825280602002602001820160405280156110cc57816020015b6110b9611d3c565b8152602001906001900390816110b15790505b5090505f805b600c805490508110156112d65760065f6001836110ef9190612ebd565b81526020019081526020015f206040518060c00160405290815f82015481526020016001820154815260200160028201548152602001600382015f9054906101000a900473ffffffffffffffffffffffffffffffffffffffff1673ffffffffffffffffffffffffffffffffffffffff1673ffffffffffffffffffffffffffffffffffffffff16815260200160048201805461118990612afa565b80601f01602080910402602001604051908101604052809291908181526020018280546111b590612afa565b80156112005780601f106111d757610100808354040283529160200191611200565b820191905f5260205f20905b8154815290600101906020018083116111e357829003601f168201915b5050505050815260200160058201805461121990612afa565b80601f016020809104026020016040519081016040528092919081815260200182805461124590612afa565b80156112905780601f1061126757610100808354040283529160200191611290565b820191905f5260205f20905b81548152906001019060200180831161127357829003601f168201915b5050505050815250508383806112a590612a86565b9450815181106112b8576112b7612e90565b5b602002602001018190525080806112ce90612a86565b9150506110d2565b50819250505090565b6112f2815f611bb690919063ffffffff16565b15611332576040517f08c379a000000000000000000000000000000000000000000000000000000000815260040161132990612f3a565b60405180910390fd5b611346816001611bb690919063ffffffff16565b15611386576040517f08c379a000000000000000000000000000000000000000000000000000000000815260040161137d90612fa2565b60405180910390fd5b61139a816002611bb690919063ffffffff16565b156113da576040517f08c379a00000000000000000000000000000000000000000000000000000000081526004016113d19061300a565b60405180910390fd5b5f60055f8373ffffffffffffffffffffffffffffffffffffffff1673ffffffffffffffffffffffffffffffffffffffff1681526020019081526020015f20905081815f015f6101000a81548173ffffffffffffffffffffffffffffffffffffffff021916908373ffffffffffffffffffffffffffffffffffffffff1602179055506040518060400160405280600881526020017f70617373776f72640000000000000000000000000000000000000000000000008152508160010190816114a19190612cc7565b506114b6826001611c4190919063ffffffff16565b5050565b5f60065f8581526020019081526020015f209050828160050190816114df9190612cc7565b5081816002018190555050505050565b600e5f81548092919061150190612a86565b91905055505f60075f600e5481526020019081526020015f209050600e54815f018190555085816001018190555084816002015f6101000a81548173ffffffffffffffffffffffffffffffffffffffff021916908373ffffffffffffffffffffffffffffffffffffffff16021790555083816003015f6101000a81548173ffffffffffffffffffffffffffffffffffffffff021916908373ffffffffffffffffffffffffffffffffffffffff160217905550828160050190816115c49190612cc7565b50818160040190816115d69190612cc7565b506115e48683600e546114ba565b600d81908060018154018082558091505060019003905f5260205f2090600602015f909190919091505f820154815f015560018201548160010155600282015f9054906101000a900473ffffffffffffffffffffffffffffffffffffffff16816002015f6101000a81548173ffffffffffffffffffffffffffffffffffffffff021916908373ffffffffffffffffffffffffffffffffffffffff160217905550600382015f9054906101000a900473ffffffffffffffffffffffffffffffffffffffff16816003015f6101000a81548173ffffffffffffffffffffffffffffffffffffffff021916908373ffffffffffffffffffffffffffffffffffffffff160217905550600482018160040190816116fd9190612dab565b50600582018160050190816117129190612dab565b505050505050505050565b60605f600d8054905067ffffffffffffffff81111561173f5761173e611fd4565b5b60405190808252806020026020018201604052801561177857816020015b611765611d84565b81526020019060019003908161175d5790505b5090505f805b600c805490508111611a27578473ffffffffffffffffffffffffffffffffffffffff1660075f8381526020019081526020015f206003015f9054906101000a900473ffffffffffffffffffffffffffffffffffffffff1673ffffffffffffffffffffffffffffffffffffffff1603611a145760075f8281526020019081526020015f206040518060c00160405290815f820154815260200160018201548152602001600282015f9054906101000a900473ffffffffffffffffffffffffffffffffffffffff1673ffffffffffffffffffffffffffffffffffffffff1673ffffffffffffffffffffffffffffffffffffffff168152602001600382015f9054906101000a900473ffffffffffffffffffffffffffffffffffffffff1673ffffffffffffffffffffffffffffffffffffffff1673ffffffffffffffffffffffffffffffffffffffff1681526020016004820180546118d990612afa565b80601f016020809104026020016040519081016040528092919081815260200182805461190590612afa565b80156119505780601f1061192757610100808354040283529160200191611950565b820191905f5260205f20905b81548152906001019060200180831161193357829003601f168201915b5050505050815260200160058201805461196990612afa565b80601f016020809104026020016040519081016040528092919081815260200182805461199590612afa565b80156119e05780601f106119b7576101008083540402835291602001916119e0565b820191905f5260205f20905b8154815290600101906020018083116119c357829003601f168201915b5050505050815250508383806119f590612a86565b945081518110611a0857611a07612e90565b5b60200260200101819052505b8080611a1f90612a86565b91505061177e565b508192505050919050565b611a3a611de2565b611a4e336001611bb690919063ffffffff16565b611a56575f80fd5b611a5e611de2565b5f5b601054811015611bac578360085f8381526020019081526020015f206001015403611b995760085f8281526020019081526020015f206040518060800160405290815f8201548152602001600182015481526020016002820154815260200160038201805480602002602001604051908101604052809291908181526020015f905b82821015611b8a578382905f5260205f20018054611aff90612afa565b80601f0160208091040260200160405190810160405280929190818152602001828054611b2b90612afa565b8015611b765780601f10611b4d57610100808354040283529160200191611b76565b820191905f5260205f20905b815481529060010190602001808311611b5957829003601f168201915b505050505081526020019060010190611ae2565b50505050815250509150611bac565b8080611ba490612a86565b915050611a60565b5080915050919050565b5f8073ffffffffffffffffffffffffffffffffffffffff168273ffffffffffffffffffffffffffffffffffffffff1603611bee575f80fd5b825f015f8373ffffffffffffffffffffffffffffffffffffffff1673ffffffffffffffffffffffffffffffffffffffff1681526020019081526020015f205f9054906101000a900460ff16905092915050565b5f73ffffffffffffffffffffffffffffffffffffffff168173ffffffffffffffffffffffffffffffffffffffff1603611c78575f80fd5b611c828282611bb6565b15611c8b575f80fd5b6001825f015f8373ffffffffffffffffffffffffffffffffffffffff1673ffffffffffffffffffffffffffffffffffffffff1681526020019081526020015f205f6101000a81548160ff0219169083151502179055505050565b828054828255905f5260205f20908101928215611d2b579160200282015b82811115611d2a578251829081611d1a9190612cc7565b5091602001919060010190611d03565b5b509050611d389190611e07565b5090565b6040518060c001604052805f81526020015f81526020015f81526020015f73ffffffffffffffffffffffffffffffffffffffff16815260200160608152602001606081525090565b6040518060c001604052805f81526020015f81526020015f73ffffffffffffffffffffffffffffffffffffffff1681526020015f73ffffffffffffffffffffffffffffffffffffffff16815260200160608152602001606081525090565b60405180608001604052805f81526020015f81526020015f8152602001606081525090565b5b80821115611e26575f8181611e1d9190611e2a565b50600101611e08565b5090565b508054611e3690612afa565b5f825580601f10611e475750611e64565b601f0160209004905f5260205f2090810190611e639190611e67565b5b50565b5b80821115611e7e575f815f905550600101611e68565b5090565b5f604051905090565b5f80fd5b5f80fd5b5f819050919050565b611ea581611e93565b8114611eaf575f80fd5b50565b5f81359050611ec081611e9c565b92915050565b5f8060408385031215611edc57611edb611e8b565b5b5f611ee985828601611eb2565b9250506020611efa85828601611eb2565b9150509250929050565b5f73ffffffffffffffffffffffffffffffffffffffff82169050919050565b5f611f2d82611f04565b9050919050565b611f3d81611f23565b8114611f47575f80fd5b50565b5f81359050611f5881611f34565b92915050565b5f60208284031215611f7357611f72611e8b565b5b5f611f8084828501611f4a565b91505092915050565b5f8115159050919050565b611f9d81611f89565b82525050565b5f602082019050611fb65f830184611f94565b92915050565b5f80fd5b5f80fd5b5f601f19601f8301169050919050565b7f4e487b71000000000000000000000000000000000000000000000000000000005f52604160045260245ffd5b61200a82611fc4565b810181811067ffffffffffffffff8211171561202957612028611fd4565b5b80604052505050565b5f61203b611e82565b90506120478282612001565b919050565b5f67ffffffffffffffff82111561206657612065611fd4565b5b61206f82611fc4565b9050602081019050919050565b828183375f83830152505050565b5f61209c6120978461204c565b612032565b9050828152602081018484840111156120b8576120b7611fc0565b5b6120c384828561207c565b509392505050565b5f82601f8301126120df576120de611fbc565b5b81356120ef84826020860161208a565b91505092915050565b5f805f80608085870312156121105761210f611e8b565b5b5f61211d87828801611eb2565b945050602061212e87828801611f4a565b935050604085013567ffffffffffffffff81111561214f5761214e611e8f565b5b61215b878288016120cb565b925050606085013567ffffffffffffffff81111561217c5761217b611e8f565b5b612188878288016120cb565b91505092959194509250565b5f67ffffffffffffffff8211156121ae576121ad611fd4565b5b602082029050602081019050919050565b5f80fd5b5f6121d56121d084612194565b612032565b905080838252602082019050602084028301858111156121f8576121f76121bf565b5b835b8181101561223f57803567ffffffffffffffff81111561221d5761221c611fbc565b5b80860161222a89826120cb565b855260208501945050506020810190506121fa565b5050509392505050565b5f82601f83011261225d5761225c611fbc565b5b813561226d8482602086016121c3565b91505092915050565b5f805f806080858703121561228e5761228d611e8b565b5b5f61229b87828801611eb2565b94505060206122ac87828801611eb2565b93505060406122bd87828801611eb2565b925050606085013567ffffffffffffffff8111156122de576122dd611e8f565b5b6122ea87828801612249565b91505092959194509250565b5f81519050919050565b5f82825260208201905092915050565b5f819050602082019050919050565b61232881611e93565b82525050565b61233781611f23565b82525050565b5f81519050919050565b5f82825260208201905092915050565b5f5b83811015612374578082015181840152602081019050612359565b5f8484015250505050565b5f6123898261233d565b6123938185612347565b93506123a3818560208601612357565b6123ac81611fc4565b840191505092915050565b5f60c083015f8301516123cc5f86018261231f565b5060208301516123df602086018261231f565b5060408301516123f2604086018261231f565b506060830151612405606086018261232e565b506080830151848203608086015261241d828261237f565b91505060a083015184820360a0860152612437828261237f565b9150508091505092915050565b5f61244f83836123b7565b905092915050565b5f602082019050919050565b5f61246d826122f6565b6124778185612300565b93508360208202850161248985612310565b805f5b858110156124c457848403895281516124a58582612444565b94506124b083612457565b925060208a0199505060018101905061248c565b50829750879550505050505092915050565b5f6020820190508181035f8301526124ee8184612463565b905092915050565b5f806040838503121561250c5761250b611e8b565b5b5f61251985828601611f4a565b925050602083013567ffffffffffffffff81111561253a57612539611e8f565b5b612546858286016120cb565b9150509250929050565b5f806040838503121561256657612565611e8b565b5b5f61257385828601611eb2565b925050602083013567ffffffffffffffff81111561259457612593611e8f565b5b6125a0858286016120cb565b9150509250929050565b6125b381611f23565b82525050565b5f6020820190506125cc5f8301846125aa565b92915050565b5f81519050919050565b5f82825260208201905092915050565b5f819050602082019050919050565b5f60c083015f8301516126105f86018261231f565b506020830151612623602086018261231f565b506040830151612636604086018261232e565b506060830151612649606086018261232e565b5060808301518482036080860152612661828261237f565b91505060a083015184820360a086015261267b828261237f565b9150508091505092915050565b5f61269383836125fb565b905092915050565b5f602082019050919050565b5f6126b1826125d2565b6126bb81856125dc565b9350836020820285016126cd856125ec565b805f5b8581101561270857848403895281516126e98582612688565b94506126f48361269b565b925060208a019950506001810190506126d0565b50829750879550505050505092915050565b5f6020820190508181035f83015261273281846126a7565b905092915050565b5f805f6060848603121561275157612750611e8b565b5b5f61275e86828701611eb2565b935050602084013567ffffffffffffffff81111561277f5761277e611e8f565b5b61278b868287016120cb565b925050604061279c86828701611eb2565b9150509250925092565b5f805f805f60a086880312156127bf576127be611e8b565b5b5f6127cc88828901611eb2565b95505060206127dd88828901611f4a565b94505060406127ee88828901611f4a565b935050606086013567ffffffffffffffff81111561280f5761280e611e8f565b5b61281b888289016120cb565b925050608086013567ffffffffffffffff81111561283c5761283b611e8f565b5b612848888289016120cb565b9150509295509295909350565b5f6020828403121561286a57612869611e8b565b5b5f61287784828501611eb2565b91505092915050565b5f81519050919050565b5f82825260208201905092915050565b5f819050602082019050919050565b5f6128b4838361237f565b905092915050565b5f602082019050919050565b5f6128d282612880565b6128dc818561288a565b9350836020820285016128ee8561289a565b805f5b85811015612929578484038952815161290a85826128a9565b9450612915836128bc565b925060208a019950506001810190506128f1565b50829750879550505050505092915050565b5f608083015f8301516129505f86018261231f565b506020830151612963602086018261231f565b506040830151612976604086018261231f565b506060830151848203606086015261298e82826128c8565b9150508091505092915050565b5f6020820190508181035f8301526129b3818461293b565b905092915050565b5f82825260208201905092915050565b7f4f6e6c79204167656e63792043616e2041636365737320746869732066756e635f8201527f74696f6e00000000000000000000000000000000000000000000000000000000602082015250565b5f612a256024836129bb565b9150612a30826129cb565b604082019050919050565b5f6020820190508181035f830152612a5281612a19565b9050919050565b7f4e487b71000000000000000000000000000000000000000000000000000000005f52601160045260245ffd5b5f612a9082611e93565b91507fffffffffffffffffffffffffffffffffffffffffffffffffffffffffffffffff8203612ac257612ac1612a59565b5b600182019050919050565b7f4e487b71000000000000000000000000000000000000000000000000000000005f52602260045260245ffd5b5f6002820490506001821680612b1157607f821691505b602082108103612b2457612b23612acd565b5b50919050565b5f819050815f5260205f209050919050565b5f6020601f8301049050919050565b5f82821b905092915050565b5f60088302612b867fffffffffffffffffffffffffffffffffffffffffffffffffffffffffffffffff82612b4b565b612b908683612b4b565b95508019841693508086168417925050509392505050565b5f819050919050565b5f612bcb612bc6612bc184611e93565b612ba8565b611e93565b9050919050565b5f819050919050565b612be483612bb1565b612bf8612bf082612bd2565b848454612b57565b825550505050565b5f90565b612c0c612c00565b612c17818484612bdb565b505050565b5b81811015612c3a57612c2f5f82612c04565b600181019050612c1d565b5050565b601f821115612c7f57612c5081612b2a565b612c5984612b3c565b81016020851015612c68578190505b612c7c612c7485612b3c565b830182612c1c565b50505b505050565b5f82821c905092915050565b5f612c9f5f1984600802612c84565b1980831691505092915050565b5f612cb78383612c90565b9150826002028217905092915050565b612cd08261233d565b67ffffffffffffffff811115612ce957612ce8611fd4565b5b612cf38254612afa565b612cfe828285612c3e565b5f60209050601f831160018114612d2f575f8415612d1d578287015190505b612d278582612cac565b865550612d8e565b601f198416612d3d86612b2a565b5f5b82811015612d6457848901518255600182019150602085019450602081019050612d3f565b86831015612d815784890151612d7d601f891682612c90565b8355505b6001600288020188555050505b505050505050565b5f81549050612da481612afa565b9050919050565b818103612db9575050612e8e565b612dc282612d96565b67ffffffffffffffff811115612ddb57612dda611fd4565b5b612de58254612afa565b612df0828285612c3e565b5f601f831160018114612e1d575f8415612e0b578287015490505b612e158582612cac565b865550612e87565b601f198416612e2b87612b2a565b9650612e3686612b2a565b5f5b82811015612e5d57848901548255600182019150600185019450602081019050612e38565b86831015612e7a5784890154612e76601f891682612c90565b8355505b6001600288020188555050505b5050505050505b565b7f4e487b71000000000000000000000000000000000000000000000000000000005f52603260045260245ffd5b5f612ec782611e93565b9150612ed283611e93565b9250828201905080821115612eea57612ee9612a59565b5b92915050565b7f7573657249442069732041646d696e00000000000000000000000000000000005f82015250565b5f612f24600f836129bb565b9150612f2f82612ef0565b602082019050919050565b5f6020820190508181035f830152612f5181612f18565b9050919050565b7f757365724964206973204167656e7400000000000000000000000000000000005f82015250565b5f612f8c600f836129bb565b9150612f9782612f58565b602082019050919050565b5f6020820190508181035f830152612fb981612f80565b9050919050565b7f5573657249642069732050617469656e740000000000000000000000000000005f82015250565b5f612ff46011836129bb565b9150612fff82612fc0565b602082019050919050565b5f6020820190508181035f83015261302181612fe8565b905091905056fe4d65646963616c205265636f726473205375626d6974746564200a204177616974696e67204167656e6379a26469706673582212205fd6e96a61662776608d8585f4b96de07ace4936a1ff59f2de27dec8a275fdec64736f6c63430008150033",
  "immutableReferences": {},
  "source": "// SPDX-License-Identifier: MIT\r\npragma solidity >=0.4.22 <0.9.0;\r\n\r\nimport \"./Roles.sol\";\r\n\r\ncontract Insure {\r\n  using Roles for Roles.Role;\r\n\r\n  Roles.Role private admin;\r\n  Roles.Role private agent;\r\n  Roles.Role private user;\r\n\r\n  struct User {\r\n    address pID;\r\n    string pwd;\r\n  }\r\n\r\n  struct Agent {\r\n    address aID;\r\n    string pwd;\r\n  }\r\n\r\n  struct Bill {\r\n    uint256 id;\r\n    uint256 bID;\r\n    uint256 cID;\r\n    address pID;\r\n    string amount;\r\n    string status;\r\n  }\r\n\r\n  struct Claim {\r\n    uint256 id;\r\n    uint256 bID;\r\n    address pID;\r\n    address aID;\r\n    string status;\r\n    string amount;\r\n  }\r\n\r\n  struct MedicalRecords {\r\n    uint256 bID;\r\n    uint256 cID;\r\n    uint256 pID;\r\n    string[] files;\r\n  }\r\n\r\n  address admin_id;\r\n\r\n  mapping(address => User) uMap;\r\n  mapping(address => Agent) aMap;\r\n  mapping(uint256 => Bill) bMap;\r\n  mapping(uint256 => Claim) cMap;\r\n  mapping(uint256 => MedicalRecords) mrMap;\r\n\r\n  mapping(address => Bill[]) bMaps;\r\n  mapping(address => Claim[]) uClaimMap;\r\n  mapping(address => Claim[]) aClaimMap;\r\n\r\n  Bill[] bills;\r\n  Claim[] claims;\r\n  uint256 cID;\r\n  uint256 bID;\r\n  uint256 mID;\r\n\r\n  constructor() {\r\n    admin_id = msg.sender;\r\n    admin.add(admin_id);\r\n    cID = 0;\r\n    bID = 0;\r\n  }\r\n\r\n  function isAdmin(address id) public view returns (bool) {\r\n    return admin.has(id);\r\n  }\r\n\r\n  function getAdmin() public view returns (address) {\r\n    return admin_id;\r\n  }\r\n\r\n  function isUser(address id) public view returns (bool) {\r\n    return user.has(id);\r\n  }\r\n\r\n  function isAgent(address id) public view returns (bool) {\r\n    return agent.has(id);\r\n  }\r\n\r\n  function addUser(address _pID, string memory _pwd) public {\r\n    require(!admin.has(_pID));\r\n    require(!agent.has(_pID));\r\n    require(!user.has(_pID));\r\n    User storage u = uMap[_pID];\r\n    u.pID = _pID;\r\n    u.pwd = _pwd;\r\n\r\n    user.add(_pID);\r\n  }\r\n\r\n  function addAgent(address _aID) public {\r\n    require(!admin.has(_aID), \"userID is Admin\");\r\n    require(!agent.has(_aID), \"userId is Agent\");\r\n    require(!user.has(_aID), \"UserId is Patient\");\r\n    Agent storage a = aMap[_aID];\r\n    a.aID = _aID;\r\n    a.pwd = \"password\";\r\n\r\n    agent.add(_aID);\r\n  }\r\n\r\n  function addBill(\r\n    uint256 _id,\r\n    address _pID,\r\n    string memory _amount,\r\n    string memory _status\r\n  ) public {\r\n    bID++;\r\n    Bill storage b = bMap[bID];\r\n    b.id = bID;\r\n    b.bID = _id;\r\n    b.pID = _pID;\r\n    b.amount = _amount;\r\n    b.status = _status;\r\n\r\n    Bill[] storage bs = bMaps[_pID];\r\n    bs.push(b);\r\n\r\n    bills.push(b);\r\n  }\r\n\r\n  function getBills(address _id) public view returns (Bill[] memory) {\r\n    Bill[] memory _bills = new Bill[](bMaps[_id].length);\r\n    uint256 j = 0;\r\n    for (uint256 i = 0; i <= bills.length; i++) {\r\n      if (bMap[i].pID == _id) {\r\n        _bills[j++] = bMap[i];\r\n      }\r\n    }\r\n    return _bills;\r\n  }\r\n\r\n  function getAllBills() public view returns (Bill[] memory) {\r\n    Bill[] memory _bills = new Bill[](bills.length);\r\n    uint256 j = 0;\r\n    for (uint256 i = 0; i < bills.length; i++) {\r\n      _bills[j++] = bMap[i + 1];\r\n    }\r\n    return _bills;\r\n  }\r\n\r\n  function updateInsurance(\r\n    uint256 _id,\r\n    string memory _status,\r\n    uint256 _cID\r\n  ) public {\r\n    Bill storage b = bMap[_id];\r\n    b.status = _status;\r\n    b.cID = _cID;\r\n  }\r\n\r\n  function claimInsurance(\r\n    uint256 _bID,\r\n    address _pID,\r\n    address _aID,\r\n    string memory _amount,\r\n    string memory _status\r\n  ) public {\r\n    cID++;\r\n    Claim storage c = cMap[cID];\r\n\r\n    c.id = cID;\r\n    c.bID = _bID;\r\n    c.pID = _pID;\r\n    c.aID = _aID;\r\n    c.amount = _amount;\r\n    c.status = _status;\r\n\r\n    updateInsurance(_bID, _status, cID);\r\n\r\n    claims.push(c);\r\n  }\r\n\r\n  function getUserClaims(address _pID) public view returns (Claim[] memory) {\r\n    Claim[] memory _claims = new Claim[](claims.length);\r\n    uint256 j = 0;\r\n    for (uint256 i = 0; i <= bills.length; i++) {\r\n      if (cMap[i].pID == _pID) {\r\n        _claims[j++] = cMap[i];\r\n      }\r\n    }\r\n    return _claims;\r\n  }\r\n\r\n  function getAgentClaims(address _aID) public view returns (Claim[] memory) {\r\n    Claim[] memory _claims = new Claim[](claims.length);\r\n    uint256 j = 0;\r\n    for (uint256 i = 0; i <= bills.length; i++) {\r\n      if (cMap[i].aID == _aID) {\r\n        _claims[j++] = cMap[i];\r\n      }\r\n    }\r\n    return _claims;\r\n  }\r\n\r\n  function updateClaim(uint256 _cID, string memory _status) public {\r\n    Claim storage c = cMap[_cID];\r\n    c.status = _status;\r\n  }\r\n\r\n  function addMedicalRecords(\r\n    uint256 _bID,\r\n    uint256 _cID,\r\n    uint256 _pID,\r\n    string[] memory _files\r\n  ) public {\r\n    require(admin.has(msg.sender));\r\n    MedicalRecords storage mr = mrMap[mID++];\r\n    mr.bID = _bID;\r\n    mr.cID = _cID;\r\n    mr.pID = _pID;\r\n    mr.files = _files;\r\n\r\n    string memory _status = \"Medical Records Submitted \\n Awaiting Agency\";\r\n\r\n    updateInsurance(_bID, _status, _cID);\r\n    updateClaim(_cID, _status);\r\n  }\r\n\r\n  function getMedicalRecords(uint256 _cID)\r\n  public\r\n  view\r\n  returns (MedicalRecords memory)\r\n  {\r\n    require(agent.has(msg.sender));\r\n    MedicalRecords memory mr;\r\n    for (uint256 i = 0; i < mID; i++) {\r\n      if (mrMap[i].cID == _cID) {\r\n        mr = mrMap[i];\r\n        break;\r\n      }\r\n    }\r\n    return mr;\r\n  }\r\n\r\n  function acceptClaim(uint256 _cID, uint256 _bID) public {\r\n    require(agent.has(msg.sender), \"Only Agency Can Access this function\");\r\n    string memory _status = \"Claim Accepted\";\r\n    updateClaim(_cID, _status);\r\n    updateInsurance(_bID, _status, _cID);\r\n  }\r\n\r\n  function rejectClaim(uint256 _cID, uint256 _bID) public {\r\n    require(agent.has(msg.sender), \"Only Agency Can Access this function\");\r\n    string memory _status = \"Claim Rejected\";\r\n    updateClaim(_cID, _status);\r\n    updateInsurance(_bID, _status, _cID);\r\n  }\r\n\r\n  function sendPayment(uint256 _cID, uint256 _bID) public {\r\n    string memory _status = \"Bill Payed\";\r\n    updateClaim(_cID, _status);\r\n    updateInsurance(_bID, _status, _cID);\r\n  }\r\n}\r\n",
  "sourcePath": "/workspaces/VeriChain/contracts/Insure.sol",
  "compiler": {
    "name": "solc",
    "version": "0.8.21+commit.d9974bed.Emscripten.clang"
  },
  "schemaVersion": "3.4.16",
  "updatedAt": "2025-04-29T10:37:29.875Z",
  "devdoc": {
    "kind": "dev",
    "methods": {},
    "version": 1
  },
  "userdoc": {
    "kind": "user",
    "methods": {},
    "version": 1
  }
}